:100000000C9421010C94120F0C94EB0E0C94910F94
:100010000C94910F0C94910F0C9449010C9428119D
:100020000C9449010C9449010C9449010C94490128
:100030000C9449010C9449010C9449010C94490118
:100040000C94A10E0C9449010C945F0F0C94390F81
:100050000C9449010C9449010C9449010C944901F8
:100060000C9409100C94490107634236B79BD8A73A
:100070001A39685618AEBAAB558C1D3CB7CC5763CD
:10008000BD6DEDFD753EF6177231BF000000803F7B
:1000900008000000BE922449123EABAAAA2ABECD97
:1000A000CCCC4C3E00000080BEABAAAAAA3E000009
:1000B0000000BF000000803F000000000008417801
:1000C000D3BB4387D1133D190E3CC3BD4282AD2B38
:1000D0003E68EC8276BED98FE1A93E4C80EFFFBE30
:1000E00001C4FF7F3F000000000000407A10F35A77
:1000F00000A0724E18090010A5D4E80000E8764868
:10010000170000E40B54020000CA9A3B000000E113
:10011000F505000080969800000040420F000000A6
:10012000A08601000000102700000000E803000086
:1001300000006400000000000A0000000000010050
:10014000000000002C76D888DC674F0823DFC1DF71
:10015000AE59E1B1B796E5E3E453C63AE651997674
:1001600096E8E6C28426EB898C9B62ED407C6FFCAE
:10017000EFBC9C9F40F2BAA56FA5F490055A2AF7F0
:100180005C936B6CF9676DC11BFCE0E40D47FEF5F9
:1001900020E6B500D0ED902E030094357705008061
:1001A000841E080000204E0A000000C80C333333C0
:1001B000330F986E12831141EF8D2114893BE65560
:1001C00016CFFEE6DB18D1844B381BF77C1D901D43
:1001D000A4BBE424203284725E228100C9F124ECA5
:1001E000A1E53D2700000000240027002A000000B0
:1001F00000080002010000030407000000000000E6
:10020000000000000000230026002900000000007C
:10021000250028002B000404040404040404020242
:100220000202020203030303030301020408102075
:100230004080010204081020010204081020A111CE
:10024000D31A11241FBECFEFD8E0DEBFCDBF24E00C
:10025000A8EFB1E001C01D92A833B207E1F711E0A9
:10026000A0E0B1E0E2EFF7E402C005900D92A83FF4
:10027000B107D9F711E0C0E2D1E004C02197FE0137
:100280000E94F421CF31D107C9F70E94A6120C9425
:10029000EC230C94000008950895CF92DF92EF9222
:1002A000FF92CF93DF93B0912804A0E08111AB2F90
:1002B0008091290490E0880F991FAC014E5F5D4F3B
:1002C000C0902E04D0902F04E0903004F0903104C0
:1002D00030E020E0FA01C591D491E881B90190E0C5
:1002E00080E0EB23EA130AC02F5F3F4F6C157D05BA
:1002F0008E059F0578F36FEF7FEFCB01DF91CF91F4
:10030000FF90EF90DF90CF90089590E0FC01E251D4
:10031000FE4F2491FC01E65DFD4F3491FC01EA5E45
:10032000FD4FE491EE23C9F0222339F0233001F18F
:10033000A8F4213019F1223029F1F0E0EE0FFF1F6F
:10034000E45FFD4FA591B4918FB7F894EC916111E2
:1003500026C030953E233C938FBF08952730A9F0E7
:100360002830C9F0243049F7809180008F7D03C088
:10037000809180008F7780938000DFCF84B58F7766
:1003800084BDDBCF84B58F7DFBCF8091B0008F77AC
:100390008093B000D2CF8091B0008F7DF9CF3E2BFB
:1003A000DACFCF93DF9390E0FC01E65DFD4F24911F
:1003B0008A5E9D4FFC0184918823C9F090E0880FEC
:1003C000991FFC01EC51FE4FA591B491FC01E45F33
:1003D000FD4FC591D49161110DC09FB7F8948C91D8
:1003E000209582238C938881282328839FBFDF91C7
:1003F000CF910895623051F49FB7F8943C91822FC9
:10040000809583238C93E8812E2BEFCF8FB7F894C0
:10041000EC912E2B2C938FBFEACF3FB7F8948091AD
:10042000B0029091B102A091B202B091B30226B590
:10043000A89B05C02F3F19F00196A11DB11D3FBF1C
:10044000BA2FA92F982F8827BC01CD01620F711DEB
:10045000811D911D42E0660F771F881F991F4A95E5
:10046000D1F708958F929F92AF92BF92CF92DF9271
:10047000EF92FF924B015C010E940D026B017C0127
:100480000E940D026C197D098E099F09683E734018
:1004900081059105A8F321E0821A9108A108B1080D
:1004A00088EEC80E83E0D81EE11CF11C8114910473
:1004B000A104B10429F7FF90EF90DF90CF90BF9097
:1004C000AF909F908F900895CF92DF92EF92FF921E
:1004D0000F931F93CF93DF93CDB7DEB7C054D140B6
:1004E0000FB6F894DEBF0FBECDBF2FB7F894809142
:1004F000B4029091B502A091B602B091B7022FBF9D
:1005000040912A0450912B0460912C0470912D0489
:100510008C019D01041B150B260B370BB901A8019B
:10052000403D57406105710590F480913204C05CF4
:10053000DE4F0FB6F894DEBF0FBECDBFDF91CF9177
:100540001F910F91FF90EF90DF90CF9008958093CF
:100550002A0490932B04A0932C04B0932D041092A2
:100560002504109224041092230410922204109265
:10057000210462E0809126040E94D10161E070E0D4
:1005800080E090E00E94320261E0809126040E94A7
:10059000D10160E0809126040E94850180912704AA
:1005A0008551823020F58BE291E10197F1F762E00D
:1005B000809126040E94D1018091330490E0823022
:1005C000910538F0880F991F880F991F059701979B
:1005D000F1F7F89480E00E944D016F3F7F4F8F4FFD
:1005E0009F4F61F410923204789480E0A0CF64E1D0
:1005F00070E080E090E00E943202D9CF81E00E945A
:100600004D016F3F7F4F8F4F9F4F61F38E010F5F03
:100610001F4F6E018FEBC81A8EEFD80A780180E069
:100620000E944D01F701608371838283938381E08F
:100630000E944D01F7016483758386839783F8E0F8
:10064000EF0EF11CEC14FD0451F7789430E020E03B
:10065000F801C080D180E280F380448155816681B9
:100660007781FFEFCF16DF06EF06FF0631F04F3F31
:100670008FEF58076807780719F410923204B5CF46
:10068000F90183E0F595E7958A95E1F7EF5DFB4F7A
:100690008081880FC416D506E606F70610F1808320
:1006A0002F5F3F4F085F1F4F2832310589F6409179
:1006B00025042091210480912204280F3327331F21
:1006C00080912304280F311D80912404820F932FE1
:1006D000911D99274817190681F681E0809332040D
:1006E00026CF8160DCCF9091AE0281E0911180E055
:1006F0008093AE028091AC029091AD0201979093ED
:10070000AD028093AC0208959091AE0281E0911108
:1007100080E08093AE028091AC029091AD02019690
:100720009093AD028093AC0208950895AF92BF926A
:10073000CF92DF92EF92FF920F931F93CF93DF93AD
:100740006C017B018B01040F151FEB015E01AE18DC
:10075000BF08C017D10759F06991D601ED91FC91FE
:100760000190F081E02DC6010995892B79F7C5012B
:10077000DF91CF911F910F91FF90EF90DF90CF907D
:10078000BF90AF900895FC01538D448D252F30E02C
:10079000842F90E0821B930B541710F0CF9608958E
:1007A00001970895FC01918D828D981761F0A28DBB
:1007B000AE0FBF2FB11D5D968C91928D9F5F9F7381
:1007C000928F90E008958FEF9FEF0895FC01918D37
:1007D000828D981731F0828DE80FF11D858D90E0A4
:1007E00008958FEF9FEF0895FC01918D228D892F41
:1007F00090E0805C9F4F821B91098F739927089529
:100800008EE293E00E94F40321E0892B09F420E0BA
:10081000822F089580E090E0892B29F00E94000447
:1008200081110C9400000895FC01A48DA80FB92F2C
:10083000B11DA35ABF4F2C91848D90E001968F7308
:100840009927848FA689B7892C93A089B1898C9127
:10085000837080648C93938D848D981306C0028876
:10086000F389E02D80818F7D80830895EF92FF9240
:100870000F931F93CF93DF93EC0181E0888F9B8DC3
:100880008C8D98131AC0E889F989808185FF15C07D
:100890009FB7F894EE89FF896083E889F9898081A0
:1008A0008370806480839FBF81E090E0DF91CF916F
:1008B0001F910F91FF90EF900895F62E0B8D10E091
:1008C0000F5F1F4F0F731127E02E8C8D8E110CC000
:1008D0000FB607FCFACFE889F989808185FFF5CF4B
:1008E000CE010E941404F1CFEB8DEC0FFD2FF11D12
:1008F000E35AFF4FF0829FB7F8940B8FEA89FB8988
:1009000080818062CFCFCF93DF93EC01888D8823E5
:10091000B9F0AA89BB89E889F9898C9185FD03C062
:10092000808186FD0DC00FB607FCF7CF8C9185FF47
:10093000F2CF808185FFEDCFCE010E941404E9CF74
:10094000DF91CF910895089520917E0230917F022A
:100950002817390771F490917C0280917D029817D5
:1009600041F0E0917C02F0E0E45CFD4F808190E09A
:1009700008958FEF9FEF08950895EF92FF920F93E0
:100980001F93CF93DF93DC015C96ED90FC905D9715
:10099000E114F10479F481E090E013969C938E9336
:1009A000129790E080E0DF91CF911F910F91FF901F
:1009B000EF9008955196ED91FC91529750968C913D
:1009C0005097982F90950FB75E962C915E97122FA7
:1009D000127021FD6095F8942081112319F1282BC4
:1009E0002083E7012197F1F728E0462F50E030817E
:1009F00060FF1AC0382B3083E7012197F1F7BA0165
:100A000075956795215089F7112381F0808189239D
:100A100080830FBF5C968D919C910197F1F781E0E7
:100A200090E0C1CF2923DCCF3923E5CF9081892BFA
:100A3000EFCF20917E0230917F022817390761F4B1
:100A400080917D0220917C0290E0805C9F4F821B10
:100A500091098F739927089590E080E0089520917F
:100A60007E0230917F0228173907B9F490917C02F9
:100A700080917D02981789F0E0917C02F0E0E45CBF
:100A8000FD4F808120917C0230E02F5F3F4F2F731C
:100A9000332720937C0290E008958FEF9FEF089515
:100AA00020911902260F3327331F21323105ECF430
:100AB00020910403FC0190E080E0243069F082E0A2
:100AC0000895A09119022191AC0147505E4FA40FE7
:100AD000B52FB11D2C930196861798F380911902BA
:100AE000680F6093190280E0089581E008951092E4
:100AF000040381E0809303031092DE0261E082E14F
:100B00000E94850161E083E10E948501E9EBF0E04C
:100B100080818E7F808380818D7F808388E4809335
:100B2000B80085E48093BC0008951092BD02109235
:100B3000BC0210920B0310922D030E9477058BE4E8
:100B400091E09093BB028093BA028CE491E0909381
:100B5000B9028093B8020895CF93DF9391E0909308
:100B6000F8018823B9F0C091B800D091BA00809103
:100B7000BC008A7B8093BC0060E082E10E9485011A
:100B800060E083E10E9485010E947705D093BA005E
:100B9000C093B800DF91CF9108958F929F92AF924A
:100BA000BF92CF92DF92EF92FF920F931F93CF935A
:100BB000DF93D0912D03D13208F0D7C0182FC09108
:100BC0002C030E940D026B017C01809104038111B2
:100BD0006BC082E080930403109303038FEF809334
:100BE000020310920103D0930003ACE0B3E0E0EE07
:100BF000F2E080E0D81391C01092DF028091DF0212
:100C0000CC0FC82BC093DF028091DE02813009F047
:100C100088C01092DE020E940D026B017C0180915F
:100C2000DF028093BB008091060390910703A0919F
:100C30000803B0910903892B8A2B8B2BA1F00E940A
:100C40000D020091060310910703209108033091D3
:100C500009036C197D098E099F09061717072807D4
:100C6000390708F442C08091BC0083FDD8CF85ECE1
:100C70008093BC000E940D026B017C0180910403F3
:100C8000823009F450C0809102038F3F09F46FC095
:100C900080910203803209F46CC08091020380339A
:100CA00009F469C084E026C080910603909107038F
:100CB000A0910803B0910903892B8A2B8B2B09F48F
:100CC00084CF0E940D028090060390900703A090AD
:100CD0000803B09009036C197D098E099F098616D7
:100CE0009706A806B90608F070CF809105030E9408
:100CF000AC0585E010920B0310922D0310920A03AD
:100D0000DF91CF911F910F91FF90EF90DF90CF90E7
:100D1000BF90AF909F908F9008959D9191938F5F1A
:100D200069CF85EEA5CF8091060390910703A0912E
:100D30000803B0910903892B8A2B8B2B09F49ECFD2
:100D40000E940D02009106031091070320910803F1
:100D5000309109036C197D098E099F090617170741
:100D60002807390708F08ACFC0CF81E0C3CF80E0E1
:100D7000C1CF82E0BFCF83E0BDCFDC0111968D9162
:100D80009C91DC01ED91FC910280F381E02D41E02A
:100D900050E00995019729F481E00E94CD0591E08A
:100DA000811190E0892F08950F931F93CF93DF93C4
:100DB000E1E0F0E02115310511F0E2E0F0E0EC01B6
:100DC000AC81BD81AE17BF0738F1DA018B01898193
:100DD0009A81488151E050930A0340932C0310926A
:100DE0000B0310922D03232B41F4B801CE01DF91A8
:100DF000CF911F910F910C94BD061097B1F3FC0198
:100E000020813181F9012281338141E050E0BD012F
:100E1000F9010995019749F380E0DF91CF911F9186
:100E20000F910895E091BD028091BC02E81730F463
:100E3000F0E0E254FD4F808190E008958FEF9FEF46
:100E400008959091BD028091BC022FEF3FEF98175B
:100E500048F4E92FF0E0E254FD4F208130E09F5F3D
:100E60009093BD02C90108958091BC029091BD028A
:100E7000891B990B0895CF92DF92EF92FF920F9307
:100E80001F93CF93DF937C01CB018A0120910A034A
:100E9000222389F0EB016B01C40ED51ECC15DD05B4
:100EA00069F06991D701ED91FC910190F081E02DFD
:100EB000C7010995F3CF642F0E945005C801DF9147
:100EC000CF911F910F91FF90EF90DF90CF900895F9
:100ED000CF93DF931F92CDB7DEB7698320910A03CA
:100EE0002223F9F020912D03203258F021E030E048
:100EF000FC013383228390E080E00F90DF91CF915B
:100F0000089580910B03E82FF0E0E45FFC4F998196
:100F100090838F5F80930B0380932D0381E090E09B
:100F2000ECCF61E0CE0101960E945005F7CFFC01A5
:100F3000248131E030930A0320932C0310920B0399
:100F400010922D038385682B8BEC93E00E94680739
:100F500081E00C94CD0590E080E00895CF93DF937D
:100F6000EC018B818823A1F0888191E090930A03A2
:100F700080932C0310920B0310922D0381E00E94AA
:100F8000CD0591E0811190E0892FDF91CF910895F7
:100F90000E94950581E08B83CE010E94AE07982FB9
:100FA0008111E2CFF1CF2F923F924F925F926F92D9
:100FB0007F928F929F92AF92BF92CF92DF92EF92E9
:100FC000FF920F931F93CF93DF93DC011496ED9163
:100FD000FC911597EF2B09F422C169012A01EC015C
:100FE000888191E090930A0380932C0310920B0365
:100FF00010922D03CD010E94BD06782E882309F49E
:101000000EC1F12CE12C332433948C819D81860117
:101010000E191F098017910708F48C0128800E947F
:101020000D024B015C0180910403811173C0602E9D
:10103000B0E2B01710F480E2682E3092040321E091
:10104000C601801B910BE816F90608F420E02093F6
:101050000303EFEFE0930203109201038FEF860D7D
:10106000809300033092DF028091DF02220C282A55
:101070002092DF028091DE02813009F090C0109250
:10108000DE020E940D024B015C018091DF02809321
:10109000BB008091060390910703A0910803B091D3
:1010A0000903892B8A2B8B2BA1F00E940D02209122
:1010B0000603309107034091080350910903681912
:1010C00079098A099B09261737074807590708F441
:1010D00042C08091BC0083FDD8CFF5ECF093BC00FA
:1010E0000E940D024B015C0180910403813009F4E0
:1010F0005AC080910103861510F460900103A0EEA0
:10110000B2E0EEEBF2E080E0861551F19D91919313
:101110008F5FFACF8091060390910703A091080397
:10112000B0910903892B8A2B8B2B09F47CCF0E9469
:101130000D0220910603309107034091080350915E
:101140000903681979098A099B092617370748078F
:10115000590708F068CF809105030E94AC05612C07
:101160001092BD026092BC026016110609F057C0D1
:1011700042018E0C9F1C5401C501881999098017E2
:10118000910798F589819A81DC01ED91FC910284A7
:10119000F385E02D0995F50181935F01EDCF85EE93
:1011A0008093BC009DCF8091060390910703A0918E
:1011B0000803B0910903892B8A2B8B2B09F494CF58
:1011C0000E940D022091060330910703409108030D
:1011D00050910903681979098A099B09261737076D
:1011E0004807590708F080CFB6CFE00EF11EEC1487
:1011F000FD0408F40ACF872DDF91CF911F910F9145
:10120000FF90EF90DF90CF90BF90AF909F908F9026
:101210007F906F905F904F903F902F900895712C2A
:10122000EACFCF93DF9300D01F92CDB7DEB78B8389
:1012300022E030E0AE014F5F5F4FBE016D5F7F4F38
:101240008091DD039091DE030E94D30789819A810A
:101250009827892798270F900F900F90DF91CF91B3
:101260000895CF93DF9300D0CDB7DEB78EE28A83A7
:1012700084EF898321E030E0AE014F5F5F4FBE0114
:101280006E5F7F4F8091DD039091DE030E94D40654
:1012900065E070E080E090E00E94320286EF0E94FC
:1012A00011090F900F90DF91CF910895CF92DF92A7
:1012B000EF92FF920E9431099C0150E040E0EDED79
:1012C000F3E08789908D281B390B41095109A589C5
:1012D000B6890E94AD1E6B017C018FE0F594E79406
:1012E000D794C7948A95D1F767857089072E000C2B
:1012F000880B990B2BE0660F771F881F991F2A9583
:10130000D1F721893289032E000C440B550B2C0D8B
:101310003D1D4E1D5F1D0E94CD21CA01B9016C0DFE
:101320007D1D8E1D9F1D685F7F4F8F4F9F4F34E047
:1013300095958795779567953A95D1F70E94901D79
:1013400020E030E040E251E40E946B1FFF90EF90FC
:10135000DF90CF9008954F925F926F927F928F921D
:101360009F92AF92BF92CF92DF92EF92FF921F9324
:10137000CF93DF93CDB7DEB728970FB6F894DEBFD3
:101380000FBECDBF0E9431094C01B12CA12C809120
:10139000DF038295880F880F807C8C5C8C8384EFC0
:1013A0008B8321E030E0AE014D5F5F4FBE016C5F8B
:1013B0007F4F8091DD039091DE030E94D4068091DF
:1013C000DF0381117DC165E070E080E090E00E9464
:1013D000320286EF0E941109B0E0A0E0CC24D82EA2
:1013E000E92EFA2E88EF8A8321E030E0AE014F5FCC
:1013F0005F4FBE016E5F7F4F8091DD039091DE03F2
:101400000E94D3078981C82A1091DF038091F403D9
:101410009091F503A5019401281B390B410951094D
:10142000A091F203B091F3030E94AD1E2B013C0189
:10143000AFE07594679457944794AA95D1F760915B
:10144000EC037091ED03072E000C880B990BBBE0A9
:10145000660F771F881F991FBA95D1F72091EE0369
:101460003091EF03032E000C440B550B240D351D5A
:10147000461D571D0E94CD21420E531E641E751E2F
:1014800020EA421A2FE0520A61087108A301920172
:10149000C301B2010E949B214B015C018CE0B59419
:1014A000A794979487948A95D1F7A091E403B0917B
:1014B000E5030E94EC219B01AC019DE05595479509
:1014C000379527959A95D1F72D833E834F8358877B
:1014D000A091E603B091E703A50194010E94EC21DD
:1014E0009C01552737FD5095452F8D819E81AF81F9
:1014F000B885280F391F4A1F5B1F2E5F3F4F4F4F84
:101500005F4F62E055954795379527956A95D1F7D6
:1015100030584F4F5F4FA091F003B091F1030E94FC
:10152000AD1E9B01AC017FE05695479537952795F9
:101530007A95D1F72D833E834F83588788E090E0DA
:10154000811B910904C0F694E794D794C7948A95B7
:10155000D2F7A091E803B091E903A50194010E949C
:10156000EC214B015C01EBE0B594A7949794879430
:10157000EA95D1F7A091E203B091E303A3019201B0
:101580000E94EC21FBE09595879577956795FA95F4
:10159000D1F7680D791D8A1D9B1D8090E003909006
:1015A000E103092C000CAA08BB08A2E0880C991CD6
:1015B000AA1CBB1CAA95D1F7680D791D8A1D9B1D1D
:1015C000012E04C0660F771F881F991F0A94D2F757
:1015D0006E5F7F4F8F4F9F4F24E030E040E050E040
:1015E0000E94CD21D701C601821B930BA40BB50B22
:1015F0009C01AD0160E573EC80E090E004C096953D
:101600008795779567951A95D2F70E949B2197FD4C
:101610006AC0660F771F881F991F2D813E814F81F9
:1016200058850E94AB2169017A019927F7FC9A95A8
:101630008F2D7E2D6D2D9B01AC010E949B219B0166
:10164000AC01AEEDBBE00E94AD1E4B015C01A3E41A
:10165000B3EEA70196010E94EF21BC01992777FD07
:101660009095892F4501BB2497FCB094AB2C680D55
:10167000791D8A1D9B1D6153714F8F4F9F4F44E011
:1016800095958795779567954A95D1F76C0D7D1D52
:101690008E1D9F1D28960FB6F894DEBF0FBECDBFDE
:1016A000DF91CF911F91FF90EF90DF90CF90BF908F
:1016B000AF909F908F907F906F905F904F90089524
:1016C000813029F468E070E080E090E080CE8230E4
:1016D00029F46EE070E080E090E079CE6AE170E09D
:1016E00080E090E074CE2D813E814F8158850E942C
:1016F000AB2169017A01CC0CDD1CEE1CFF1C95CFDF
:101700000F931F93CF938C01C62F0E9497076C2FC6
:101710006460C8010E9497076C2F6B7FC8010E940C
:10172000970783EC90E00197F1F7CF911F910F910C
:1017300008950F931F93CF93DF938C01D62FC42F5F
:10174000607F642B0E94800B80E1D89FB001112440
:101750006C2BC801DF91CF911F910F910C94800BDE
:1017600040E061E086EF93E00E94990B8BE39FE1FC
:101770000197F1F7089541E00E94990B81E090E014
:101780000895CF93DF93CDB7DEB728970FB6F894BF
:10179000DEBF0FBECDBF98E0EBE0F1E0DE011196B9
:1017A00001900D929A95E1F79091FE03961710F42F
:1017B0006FEF690F262F30E0220F331F41E050E01A
:1017C0004C0F5D1F240F351FF9016081680F6068A1
:1017D00040E086EF93E028960FB6F894DEBF0FBE88
:1017E000CDBFDF91CF910C94990BFB0101900020AC
:1017F000E9F73197AF01461B570BDC01ED91FC91E6
:101800000280F381E02D09948F929F92AF92BF9254
:101810000F931F93CF93DF93CDB7DEB7A1970FB68A
:10182000F894DEBF0FBECDBF19A2423008F44AE0E3
:101830008E010F5D1F4F842E912CB12CA12CA50180
:1018400094010E94AB21E62FB901CA01EA3004F5E8
:10185000E05DD801EE938D01232B242B252B79F706
:1018600090E080E0109729F0BD0186EF93E00E94A0
:10187000F50BA1960FB6F894DEBF0FBECDBFDF917A
:10188000CF911F910F91BF90AF909F908F9008952F
:10189000E95CDFCFBC0186EF93E00C94F50B4F922F
:1018A0005F926F927F928F929F92AF92BF92CF92F0
:1018B000DF92EF92FF92CF93DF936B017C01AC013B
:1018C0009B010E94612065E571E0811126C04601FF
:1018D0005701E894B7F82FEF3FEF4FE75FE7C501F7
:1018E000B4010E94612081110CC02FEF3FEF4FE740
:1018F0005FE7C501B4010E94891D69E571E0181612
:1019000064F02FEF3FEF4FE75FE4C701B6010E949D
:101910000C201816A4F46DE571E086EF93E0DF91DA
:10192000CF91FF90EF90DF90CF90BF90AF909F90BE
:101930008F907F906F905F904F900C94F50B2FEFEE
:101940003FEF4FE75FECC701B6010E94891D87FD9D
:10195000E2CF20E030E0A901C701B6010E94891D55
:10196000D0E0C0E087FF0CC041E06DE286EF93E07D
:101970000E94990BF7FAF094F7F8F094C1E0D0E0E8
:101980002AE037ED43EA5BE3C701B6010E94FF1E80
:101990004B015C010E94DD1F6B017C010E948E1DCA
:1019A0009B01AC01C501B4010E94FE1E4B015C010C
:1019B0004AE0C701B6010E94040C7C01EC0EFD1E3A
:1019C00041E06EE286EF93E00E94990B8FEFE81AF8
:1019D000F80A20E030E040E251E4C501B4010E9481
:1019E000EF1D2B013C010E94DD1F4B01B12CA12CEE
:1019F0004AE0C501B4010E94040CE80EF91EC501BD
:101A0000B4010E948E1D9B01AC01C301B2010E9472
:101A1000FE1E20E030E040E251E40E94EF1D0E94F3
:101A2000DD1F90E080E04AE00E94040C8E0D9F1DB7
:101A3000DF91CF91FF90EF90DF90CF90BF90AF906C
:101A40009F908F907F906F905F904F900895CF936D
:101A5000DF93EC0188819981009711F00E94962212
:101A6000198218821D821C821B821A82DF91CF91FB
:101A70000895FC0180819181009711F00C949622C9
:101A800008950F931F93CF93DF93EC018881998181
:101A9000009759F02A813B812617370730F081E003
:101AA000DF91CF911F910F9108958B016F5F7F4F51
:101AB0000E941F23009759F0998388831B830A8310
:101AC0002C813D81232B59F7FC011082E8CF80E067
:101AD000E7CF0F931F93CF93DF93EC010C811D8110
:101AE0000F5F1F4FB8010E94410D882391F028819C
:101AF00039818C819D8161E671E0820F931F0E9484
:101B0000E5231D830C83CE01DF91CF911F910F91AF
:101B10000895CE010E94270DF6CF0F931F93CF9308
:101B2000DF93FC01008111810115110531F480E082
:101B3000DF91CF911F910F910895C481D581209796
:101B4000F1F08091DB039091DC03C80FD91FBE0137
:101B500087ED93E00E94410D882349F32091D7033C
:101B60003091D8038091DB039091DC03B801820FA0
:101B7000931F0E94E523D093DC03C093DB0381E035
:101B8000D7CFEF92FF920F931F93CF93DF93EC0188
:101B90007B018A01BA010E94410D81110BC0CE0167
:101BA0000E94270DCE01DF91CF911F910F91FF90E1
:101BB000EF9008951D830C83B701888199810E945D
:101BC000E523F0CFFB0101900020E9F73197AF0149
:101BD000461B570B0C94C10DEF92FF920F931F936E
:101BE000CF93DF93CDB7DEB7A1970FB6F894DEBFE2
:101BF0000FBECDBF7C01CB01BA01F701118210826B
:101C000013821282158214828E010F5F1F4F22E011
:101C100044E00E94F31A009789F0BC01C7010E94BA
:101C2000E20DA1960FB6F894DEBF0FBECDBFDF91D7
:101C3000CF911F910F91FF90EF900895C7010E94DF
:101C4000270DEFCF0F931F93CF93DF93CDB7DEB761
:101C5000A1970FB6F894DEBF0FBECDBF8C01CB01AC
:101C6000BA01F80111821082138212821582148245
:101C70002AE0AE014F5F5F4F0E94201BBE016F5FE5
:101C80007F4FC8010E94E20DA1960FB6F894DEBF07
:101C90000FBECDBFDF91CF911F910F910895FB0132
:101CA000DC0111961C921E9213961C921E921297A2
:101CB00015961C921E9214978617970749F060811B
:101CC00071816115710521F0448155810C94C10D1C
:101CD000089585ED8093BC008091060390910703E1
:101CE000A0910803B09109030796A11DB11D23E03F
:101CF000B695A795979587952A95D1F72091BC0021
:101D000024FD03C0109204030895409106035091EE
:101D100007036091080370910903452B462B472B5D
:101D200069F30097A105B10541F02AE22A95F1F780
:101D300000C00197A109B109E1CF809105030C947E
:101D4000AC051F920F920FB60F9211242F933F9361
:101D50008F939F93AF93BF938091B4029091B502FC
:101D6000A091B602B091B7023091AF0223E0230FE9
:101D70002D3758F50196A11DB11D2093AF02809318
:101D8000B4029093B502A093B602B093B7028091CB
:101D9000B0029091B102A091B202B091B30201964B
:101DA000A11DB11D8093B0029093B102A093B20225
:101DB000B093B302BF91AF919F918F913F912F91BB
:101DC0000F900FBE0F901F90189526E8230F0296D4
:101DD000A11DB11DD2CF1F920F920FB60F921124E9
:101DE0002F933F934F935F936F937F938F939F9323
:101DF000AF93BF93EF93FF93E0910201F091030142
:101E00000995FF91EF91BF91AF919F918F917F9134
:101E10006F915F914F913F912F910F900FBE0F9057
:101E20001F9018951F920F920FB60F9211242F93A7
:101E30003F934F935F936F937F938F939F93AF9352
:101E4000BF93EF93FF93E0910001F0910101099599
:101E5000FF91EF91BF91AF919F918F917F916F9182
:101E60005F914F913F912F910F900FBE0F901F9058
:101E700018951F920F920FB60F9211242F933F9334
:101E80004F935F936F937F938F939F93AF93BF9382
:101E9000EF93FF938EE293E00E941404FF91EF9181
:101EA000BF91AF919F918F917F916F915F914F9172
:101EB0003F912F910F900FBE0F901F9018951F927A
:101EC0000F920FB60F9211242F938F939F93EF933E
:101ED000FF93E0913E03F0913F038081E091440342
:101EE000F091450382FD1BC09081809147038F5F75
:101EF0008F7320914803821741F0E0914703F0E08F
:101F0000E25DFC4F958F80934703FF91EF919F9186
:101F10008F912F910F900FBE0F901F901895808179
:101F2000F4CF1F920F920FB60F9211242F933F936D
:101F30004F935F936F937F938F939F93AF93BF93D1
:101F4000EF93FF93E0917E02F0917F02309749F08A
:101F5000A685B7858585968D91FF14C09C918923B0
:101F6000A1F4FF91EF91BF91AF919F918F917F91DC
:101F70006F915F914F913F912F910F900FBE0F90F6
:101F80001F9018959C91892361F7A389B4899C912E
:101F90008589809589238C93868997890197F1F7A4
:101FA000608D718DA685B785558538E020E0CB0121
:101FB0000197F1F7822F90E095958795282F4C9106
:101FC000452309F02068315091F7868D81FD2095D9
:101FD00080917D0290E001968F73992730917C0269
:101FE000381799F0A0917D02B0E0A45CBD4F2C930E
:101FF00080937D02828D938D0197F1F7A389B48937
:102000008C919589892B8C93ACCF868D8160868F3E
:10201000F1CF1F920F920FB60F9211242F933F937F
:102020004F935F936F937F938F939F93AF93BF93E0
:10203000EF93FF938091B900887F803609F44AC0FE
:10204000F0F5883209F4A7C018F5803109F49BC077
:10205000B8F4882309F4F9C0883009F494C0FF91DA
:10206000EF91BF91AF919F918F917F916F915F9110
:102070004F913F912F910F900FBE0F901F90189589
:10208000883109F488C0803251F78093020314C06C
:10209000803409F49DC040F48033B9F38833F9F6F5
:1020A0008093020385ECB0C0803509F485C0883583
:1020B00009F496C0883499F60E94690ED0CF883909
:1020C00009F48CC038F5883729F050F4883611F0BF
:1020D000803729F683E08093040310923B0257C0B7
:1020E000883809F47BC0803919F0803809F0B7CFFF
:1020F00080913B02803208F071C0E0913B0281E0A8
:102100008E0F80933B028091BB00F0E0E55EFD4FB7
:1021100080833DC0803B39F0E0F4803A09F479C017
:10212000883A09F09CCF84E08093040310921A024D
:1021300010921902E091BA02F091BB0209958091C8
:10214000190281110FC081E0809319021092F901E8
:1021500009C0803C09F4A6CF883C09F4A3CF883B92
:1021600009F07DCFE0911A0281E08E0F80931A0270
:10217000F0E0E750FE4F80818093BB0090911A02FF
:102180008091190229C08091DF028093BB0085EC09
:102190008093BC0064CF9091010380910003981755
:1021A00058F5E091010381E08E0F80930103F0E088
:1021B000E052FD4F8081E9CFE091010381E08E0F75
:1021C000809301038091BB00F0E0E052FD4F8083DB
:1021D00090910103809100039817C8F285E8D8CF49
:1021E000E091010381E08E0F809301038091BB0099
:1021F000F0E0E052FD4F80838091030381115CCFBA
:1022000081E08093DE0284EA8093BC001092040394
:1022100026CF85EC8093BC001092040380913B0292
:10222000803230F4E0913B02F0E0E55EFD4F108239
:1022300060913B0270E0E091B802F091B9028BE14D
:1022400092E0099510923B020ACF1092020334CF1C
:102250001F920F920FB60F9211240F931F932F937B
:102260003F934F935F936F937F938F939F93AF931E
:10227000BF932091840030918500B09B0BC081E01A
:1022800086BB809187029091880201969093880284
:10229000809387028091890290918A0201964091F1
:1022A0008102509182028417950708F445C010926C
:1022B0008A02109289028091870290918802B0E090
:1022C000A0E0DC0199278827820F931FA11DB11D73
:1022D0004091830250918402609185027091860240
:1022E0008C019D01041B150B260B370BB901A801AE
:1022F00040938C0250938D0260938E0270938F02F4
:102300008093830290938402A0938502B093860207
:1023100081E080938B02BF91AF919F918F917F91CC
:102320006F915F914F913F912F911F910F910F905E
:102330000FBE0F901F90189590938A028093890288
:10234000EACF109231031092300388EE93E0A0E0C0
:10235000B0E08093320390933303A0933403B0939F
:10236000350327E131E030932F0320932E0325EC32
:1023700030E030933B0320933A0324EC30E0309379
:102380003D0320933C0320EC30E030933F03209347
:102390003E0321EC30E0309341032093400322ECD4
:1023A00030E0309343032093420326EC30E0309337
:1023B0004503209344031092470310924803109260
:1023C000490310924A031092CE031092CD038093DA
:1023D000CF039093D003A093D103B093D20329E20B
:1023E00031E03093CC032093CB0326E020932604E6
:1023F0002BE020932704E0E3F2E0E491E09328044B
:10240000ECE1F2E0E491E093290440E85EE360E06F
:1024100070E040932E0450932F0460933004709327
:1024200031041092050410920404809306049093E2
:102430000704A0930804B093090487E491E0909303
:10244000030480930204109219041092180410924D
:102450001B0410921A0410921D0410921C04109276
:102460001F0410921E04609120046E7F6D7F6093A4
:1024700020046695617081E068278AE00E948501EA
:1024800061E08AE00E94D101E4E3F2E0E491E093AC
:102490001204E0E2F2E0E491F0E0EE0FFF1FE45FEF
:1024A000FD4F85919491909314048093130460E000
:1024B00089E00E94D1018091200481FD04C061E087
:1024C00089E00E94850189E080930E04E3E3F2E055
:1024D000E491E0930F04EFE1F2E0E491F0E0EE0F1D
:1024E000FF1FEE5FFD4F85919491909311048093AF
:1024F00010041092F9031092F8038BE391E090938B
:10250000F7038093F60388E38093FA0384E18093D2
:10251000FF0388E080930004109201041092DE0310
:102520001092DD031092D8031092D7031092DA03B1
:102530001092D9031092DC031092DB0350E040E0CC
:1025400067ED71E087ED93E00C94C10DCF93DF93BD
:10255000CDB7DEB7A9970FB6F894DEBF0FBECDBFDB
:10256000789484B5826084BD84B5816084BD85B56E
:10257000826085BD85B5816085BD80916E0081607A
:1025800080936E0010928100809181008260809320
:102590008100809181008160809381008091800022
:1025A0008160809380008091B10084608093B1004D
:1025B0008091B00081608093B00080917A00846047
:1025C00080937A0080917A00826080937A00809173
:1025D0007A00816080937A0080917A00806880938D
:1025E0007A001092C10062E0809126040E94D1011D
:1025F0002FB7F8948091B4029091B502A091B602E1
:10260000B091B7022FBF805D9740A109B1098093B7
:102610002A0490932B04A0932C04B0932D0487E3F9
:1026200080933304E0913E03F0913F0382E0808386
:10263000E0913A03F0913B031082E0913C03F0916A
:102640003D038FEC808310924603E0914203F091AA
:10265000430386E08083E0914003F0914103808151
:1026600080618083E0914003F09141038081886024
:102670008083E0914003F0914103808180688083F2
:10268000E0914003F091410380818F7D808310921F
:102690001D0410921C0410921B0410921A04109234
:1026A0001904109218048DE991E090931F0480930F
:1026B0001E0490910E04963108F047C02DEB30E0D7
:1026C00030931904209318042BE931E030931B0454
:1026D00020931A042CE231E030931D0420931C0453
:1026E0002091680084E0983048F031E09E3008F492
:1026F00030E081E001C0880F3A95EAF7822B8093A1
:1027000068002DE630E0983050F02BE630E09E3047
:1027100030F02CE630E0963110F030E020E03093DD
:10272000160420931504292F30E0983008F065C373
:1027300081E001C0880F9A95EAF780931704809191
:102740001E0490911F040197F1F780911C04909151
:102750001D04892B49F1E0917E02F0917F0224E073
:10276000E230F20709F1309739F0A389B4899C91DE
:102770008589809589238C93809120048E7F809316
:10278000200410927D0210927C0282E094E09093EB
:102790007F0280937E02E0911504F09116048081FF
:1027A00090911704892B808310928A0210928902DB
:1027B0001092880210928702109283021092840273
:1027C000109285021092860210928B0280918000F6
:1027D00080918100109281001092800010928500FB
:1027E0001092840081E086BB10926F008091B0004F
:1027F0008091B1001092B10082E08093B0009CE71C
:102800009093B30097E09093800287BB1092B20040
:102810002DE730E030938202209381022FB7F894A5
:1028200083BD309180023093B100809370008BE0C3
:102830008150F1F7909381002FBF0E94950510926F
:10284000FB0380910004823018F098E09093FB0322
:102850008093FE0362E370E080E090E00E94320229
:102860006091010486EF93E00E94970768EE73E0A1
:1028700080E090E00E94320260E386EF93E00E94E5
:10288000800B0BE416E4C8010197F1F760E386EFD3
:1028900093E00E94800BC8010197F1F760E386EF97
:1028A00093E00E94800B83E592E00197F1F760E2EC
:1028B00086EF93E00E94800B6091FB03606240E032
:1028C00086EF93E00E94990B84E08093FC0340E044
:1028D0006CE086EF93E00E94990B0E94B00B82E0BF
:1028E0008093FD0340E066E086EF93E00E94990B41
:1028F00040E062E086EF93E00E94990B8BE39FE15A
:102900000197F1F788E08093010460E086EF93E09F
:102910000E94970760E083E00E94D10160E082E0BE
:102920000E94D10183E793E0909303018093020119
:10293000809169008C6080936900E99A84E893E053
:1029400090930101809300018091690083608093DE
:102950006900E89A83E08093DF038091DD03909122
:10296000DE03009711F00E94962286E090E00E941C
:10297000FA218C0187E7D8018C938BEC93E01296B7
:102980009C938E93119713961C92139780E290E07C
:1029900015969C938E9314971093DE030093DD039A
:1029A0000E94950581E0F8018383C8010E94AE076B
:1029B000882309F42FC280ED89A721E030E0AE0121
:1029C0004F5F5F4FBE01675D7F4F8091DD03909148
:1029D000DE030E94D3078981853509F01BC28AEA8C
:1029E0000E9411099093E1038093E0038CEA0E9416
:1029F00011099093E3038093E2038EEA0E94110988
:102A00009093E5038093E40380EB0E941109909377
:102A1000F1038093F00382EB0E9411099093F3037A
:102A20008093F20384EB0E9411099093F503809345
:102A3000F40386EB0E9411099093E7038093E60369
:102A400088EB0E9411099093E9038093E8038AEBD5
:102A50000E9411099093EB038093EA038CEB0E9490
:102A600011099093ED038093EC038EEB0E94110902
:102A70009093EF038093EE0361E084E00E94D10124
:102A8000812C80E8982E8DE9A82E83E4B82E412C65
:102A900090E4592E92E9692E93E4792E61E084E066
:102AA0000E94850168EB7BE080E090E00E943202AA
:102AB00080918B028823A9F02FB7F89480918C0223
:102AC00090918D02A0918E02B0918F0210928B0294
:102AD0002FBF8093900290939102A0939202B093A3
:102AE00093028091900290919102A0919202B091F4
:102AF000930285309105A105B10540F41092A00222
:102B00001092A1021092A2021092A302AC01BD0188
:102B10004951510961097109453051056105710536
:102B200060F42AE030E040E050E02093A0023093CF
:102B3000A1024093A2025093A302AC01BD014653EF
:102B4000510961097109463051056105710560F44B
:102B500024E130E040E050E02093A0023093A10255
:102B60004093A2025093A302AC01BD01405551090C
:102B700061097109453051056105710560F42EE167
:102B800030E040E050E02093A0023093A102409357
:102B9000A2025093A302AC01BD014D565109610937
:102BA0007109463051056105710560F428E230E095
:102BB00040E050E02093A0023093A1024093A20293
:102BC0005093A302AC01BD01475851096109710935
:102BD000453051056105710560F422E330E040E0C5
:102BE00050E02093A0023093A1024093A2025093A0
:102BF000A302AC01BD01445A510961097109463073
:102C000051056105710560F42CE330E040E050E0CF
:102C10002093A0023093A1024093A2025093A302FA
:102C2000AC01BD014E5B5109610971094530510587
:102C30006105710560F426E430E040E050E0209347
:102C4000A0023093A1024093A2025093A302AC01D0
:102C5000BD014A5D510961097109453051056105A0
:102C6000710560F420E530E040E050E02093A002E0
:102C70003093A1024093A2025093A302AC01BD0184
:102C8000455F5109610971094530510561057105BB
:102C900060F42AE530E040E050E02093A002309359
:102CA000A1024093A2025093A30281519140A10935
:102CB000B1090597A105B10560F484E690E0A0E0B4
:102CC000B0E08093A0029093A102A093A202B093DF
:102CD000A30260E084E00E94850168EB7BE080E075
:102CE00090E00E94320280918B028823F9F02FB786
:102CF000F89460918C0270918D0280918E02909177
:102D00008F0210928B022FBF0E948E1D20E030E0B8
:102D100040E250E40E94EF1D0E94DD1F6093A40278
:102D20007093A5028093A6029093A70280E48093FB
:102D30007C0080917A00806480937A0080917A0090
:102D400086FDFCCF00917800109179000E3E1105B0
:102D500009F061C06DE771E088E992E00E94E52327
:102D600010929C0210929D0210929E0210929F025D
:102D70000E3BF3E01F0709F07CC06BE671E088E9C9
:102D800092E00E94E52380E090E0A1EEB2E480931F
:102D90009C0290939D02A0939E02B0939F020A38DA
:102DA00081E0180709F07CC064E771E088E992E0EF
:102DB0000E94E52380E090E0A1E6B3E480939C02CA
:102DC00090939D02A0939E02B0939F020134114004
:102DD00009F07DC06FE771E088E992E00E94E52389
:102DE00020E030EC48EA53E420939C0230939D02AB
:102DF00040939E0250939F026AC09E3040F4285038
:102E0000310981E001C0880F2A95EAF796CC2E504F
:102E10003109F7CFFFCF0A3692E0190799F463E63C
:102E200071E088E992E00E94E52380E090E0A4EB65
:102E3000B1E480939C0290939D02A0939E02B09374
:102E40009F0296CF0333A2E01A0709F054C068E648
:102E500071E088E992E00E94E52380E090E0A4E33D
:102E6000B2E480939C0290939D02A0939E02B09343
:102E70009F02073423E0120709F053C060E771E0B6
:102E800088E992E00E94E52380E090E0A7E0B3E4C7
:102E900080939C0290939D02A0939E02B0939F0208
:102EA000083A91E0190709F053C067E771E088E933
:102EB00092E00E94E52380E090E8A7E7B3E48093E6
:102EC0009C0290939D02A0939E02B0939F020E9449
:102ED0006402882359F0809127048B3038F08D30BC
:102EE00008F4AEC08551823008F428C360E070E079
:102EF00080EC9FE7C1C00C3AB3E01B07C1F567E661
:102F000071E088E992E00E94E52380E090E0A7E884
:102F1000B2E480939C0290939D02A0939E02B09392
:102F20009F02013833E0130709F062C06FE671E0D9
:102F300088E992E00E94E52380E090E8ADE1B3E407
:102F400080939C0290939D02A0939E02B0939F0257
:102F50000F34110509F062C061E871E088E992E080
:102F60000E94E52380E090E0A7E8B3E4A8CF033A0D
:102F7000E3E01E0709F0FCCE69E671E088E992E023
:102F80000E94E52380E090E0A4EBB2E480939C02F1
:102F900090939D02A0939E02B0939F020B3053E04A
:102FA000150709F0FCCE63E771E088E992E00E9422
:102FB000E52380E090E8AAE4B3E480939C02909338
:102FC0009D02A0939E02B0939F020938110509F05B
:102FD000FDCE60E871E088E992E00E94E5238092EE
:102FE0009C0290929D02A0929E02B0929F026FCF8F
:102FF000013E42E0140791F66DE671E088E992E047
:103000000E94E52380E090E0A4E3B3E480939C0277
:1030100090939D02A0939E02B0939F02043C1105E1
:10302000A1F66BE771E088E992E00E94E523409207
:103030009C0250929D0260929E0270929F0247CF26
:103040006091220470E090E080E00E94901D2DECE1
:103050003CEC4CEC5DE30E94EF1D6B017C01609148
:10306000210470E090E080E00E94901D9B01AC0183
:10307000C701B6010E94FF1E6093940270939502EF
:103080008093960290939702909104018091AE02F2
:1030900098130E94B00B0E94B00B67ED71E087EDB2
:1030A00093E00E94E20D8091AE0280930401809132
:1030B000AC029091AD029093AB028093AA020E9461
:1030C0005609AB01BC01CE0183960E94EC0DBE01F6
:1030D0006D5D7F4FCE0101960E944F0ECE0101968D
:1030E0000E94690D0E948D0DCE0101960E94390D3E
:1030F000CE0183960E94390D6091AA02862F90918D
:10310000AB0284309105D0F40297029708F028C2F0
:103110008CEF9FEF9093A9028093A8028091A80260
:103120000E94C10B83E891E00E944A0C0E9456095C
:103130000E944F0C8DE891E00E944A0C0E94AB095E
:103140001CA21BA21EA21DA218A61FA22AE0AE014D
:103150004F5F5F4F0E94111BBE016F5F7F4FCE011B
:1031600083960E94E20DBE016D5D7F4FCE010196F8
:103170000E944F0ECE0101960E94690D0E948D0D96
:10318000CE0101960E94390DCE0183960E94390D21
:103190008091AC029091AD02BC016F5F7F4F709344
:1031A000AB026093AA026430710568F5019702973B
:1031B00008F0DBC18CEF9FEF9093A9028093A802E7
:1031C0008091A8020E94C10B80E991E00E944A0C04
:1031D0000E94AB096B017C014AE0F7FE0EC041E0A2
:1031E0006DE286EF93E00E94990B66277727CB016B
:1031F0006C197D098E099F094AE00E94040C87E939
:1032000091E00E944A0C8091AC029091AD02BC0109
:103210006E5F7F4F7093AB026093AA0264307105BA
:10322000A8F5029708F0A6C18CEF9FEF9093A90232
:103230008093A8028091A8020E94C10B8AE991E0C4
:103240000E944A0C0E94AB090E94901D20E836EEB5
:1032500045EC57E40E946B1F21E03EED42E45EE343
:103260000E9411209B01AC0160E070E080E89FE3C8
:103270000E94FE1E20E03AE24DE257E40E94EF1D5C
:103280000E944F0C81EA91E00E944A0C4091A402F6
:103290005091A5026091A6027091A702CE0183967B
:1032A0000E94220EBE016D5D7F4FCE0101960E94ED
:1032B0004F0ECE0101960E94690D0E948D0DCE0128
:1032C00001960E94390DCE0183960E94390D80919E
:1032D000AC029091AD02BC016D5F7F4F7093AB0269
:1032E0006093AA026430710508F50196029708F010
:1032F00046C18CEF9FEF9093A9028093A802809122
:10330000A8020E94C10B83EA91E00E944A0C6091DE
:10331000A4027091A5028091A6029091A7024AE0B2
:103320000E94040C8EEA91E00E944A0C4091A00297
:103330005091A1026091A2027091A302CE018396E6
:103340000E94220EBE016D5D7F4FCE0101960E944C
:103350004F0ECE0101960E94690D0E948D0DCE0187
:1033600001960E94390DCE0183960E94390D8091FD
:10337000AC029091AD02BC016C5F7F4F7093AB02C9
:103380006093AA026430710508F58E3F9F4F08F4E0
:10339000FBC08CEF9FEF9093A9028093A8028091CD
:1033A000A8020E94C10B83EB91E00E944A0C60913D
:1033B000A0027091A1028091A2029091A3024AE022
:1033C0000E94040C89EB91E00E944A0C40919C02FF
:1033D00050919D0260919E0270919F02CE01839652
:1033E0000E94EC0DBE016D5D7F4FCE0101960E94E3
:1033F0004F0ECE0101960E94690D0E948D0DCE01E7
:1034000001960E94390DCE0183960E94390D80915C
:10341000AC029091AD02BC016B5F7F4F7093AB0229
:103420006093AA0264307105B0F40396029708F025
:10343000B0C08CEF9FEF9093A9028093A802809177
:10344000A8020E94C10B8FEB91E00E944A0C88E910
:1034500092E00E944A0C4091940250919502609132
:10346000960270919702CE0101960E94EC0DCE015A
:1034700001960E948D0DCE0101960E94390D80911A
:10348000AC029091AD02BC016A5F7F4F7093AB02BA
:103490006093AA026430710500F50496029708F063
:1034A0007DC08CEF9FEF9093A9028093A80280913A
:1034B000A8020E94C10B8AEC91E00E944A0C609124
:1034C00094027091950280919602909197020E94C9
:1034D0004F0C83ED91E00E944A0C64EF71E080E0B4
:1034E00090E00E9432024091DB035091DC03609136
:1034F000D7037091D8038EE293E00E94960365EDA6
:1035000071E08EE293E00E94F50B68ED71E082E0DD
:1035100094E00E94F50B65ED71E082E094E00E947A
:10352000F50B80E090E0892B09F4B8CA0E940004F2
:10353000882309F4A5CA0E940000A2CA6091210450
:103540007091220476276727762790E080E00E941A
:103550008E1D2DEC3CEC4CEC5DE30E94EF1D8CCD00
:103560001092A9021092A802D9CD1092A90210922D
:10357000A80226CE1092A9021092A8025BCE109249
:10358000A9021092A802BBCE1092A9021092A80222
:1035900006CF1092A9021092A80251CF1092A90250
:1035A0001092A80284CF87ED93E00E94390D87E442
:1035B00091E0909303048093020480917E029091A5
:1035C0007F028250944071F4E0911504F09116044A
:1035D00090818091170480958923808310927F02C7
:1035E00010927E020895EF920F931F93CF93DF9373
:1035F000E80134E047FD34E1042E000C550B57FF81
:1036000003C0519541955109E32E022F242FAE019D
:103610000E94421BCE01DF91CF911F910F91EF903D
:103620000895BB272A3051F4992342F4BDE29095C6
:103630008095709561957F4F8F4F9F4F0C94211B04
:10364000BB27FA01A62F6217710581059105330B7F
:1036500030FB66F0AA27660F771F881F991FAA1FE5
:10366000A21710F0A21B63953850A9F7A05DAA33EA
:1036700008F0A95DA19336F7B111B1931082CA0188
:103680000C94791DA9E0B0E0E8E4FBE10C94BE1EC7
:103690006A01F22EB02E102FFBE3AF2EA01608F415
:1036A0001BE31F5F012F27E0AE014F5F5F4F0E94BA
:1036B000A11CBC018981982F9970913009F43FC0F9
:1036C0009BE2E1FC04C09E2D9170E0FC3AC05E2DAF
:1036D0005071E82FE87083FF46C084E0911101C06B
:1036E00083E0EF2DE81B8F1508F0E0E0D6018E2F68
:1036F00020E2552351F1992329F0D6019C93C6016C
:1037000001966C0196012D5F3F4FE2FE24C08EE4CE
:10371000D6018C9391E411969C93119712968C93F9
:10372000D9018E2F90E281111BC0E20FF32FF11D02
:1037300010828EEF9FEF2996ECE00C94DA1E9DE24A
:10374000C6CF90E2C4CF2D9381508111FCCFCE0E15
:10375000D11CE0E0D0CF8EE6D6018C9391E6DBCF92
:103760009D938150E0CF482F447082FF3DC084E09C
:10377000911101C083E08F1510F4EF2DE81BD601E5
:103780008E2F20E2552309F1992329F0D6019C932D
:10379000C60101966C0196012D5F3F4FE2FE1BC0F2
:1037A00089E4D6018C938EE411968C93119786E46C
:1037B00012968C93D9018E2F90E2882309F4B5CF0D
:1037C0009D938150FACF2D9381508111FCCFCE0E65
:1037D000D11CE0E0D9CF89E6D6018C938EE6119614
:1037E0008C93119786E6E4CF9B0177FF02C030E00F
:1037F00020E0A1E0B0E0911102C0B0E0A0E0F9014A
:103800003196AE0FBF1F8B2C912CBB2009F461C0E9
:103810005401EFEFAE1ABE0AAA0DBB1DFA161B0625
:1038200019F014F04F2D4A1B511188C0E3FC59C008
:103830007601A42FB0E2A1114FC0C40ED11C992370
:1038400009F45BC040E0D6011196F60190836D014A
:10385000552309F448C0012F060F9A81582F507143
:1038600084FF03C0913309F4015010160CF047C0D7
:10387000093008F008E0EEE2FE2E5B01A01AB10864
:1038800085019194819491082F3F320729F4D60144
:10389000FC92F60131966F016217730794F10217DB
:1038A00013077CF5DB01A21BB30BAA24A394B12C54
:1038B000AC0EBD1EAA0DBB1D11968C912150310975
:1038C000D601119628153905F4F0F60180836D01B3
:1038D000DBCFB12CA12CA0CFF701B1937F01A15078
:1038E000AACF9111B0CFD601942F50E302C05D93BF
:1038F00091509111FCCFC40ED11C40E0ACCF01E03F
:10390000BACF80E3DBCF6217730731F4963388F4C4
:10391000953311F4552369F0F6018083FD01842F5E
:1039200090E2811108C0A40FB11D1C9290E080E0CC
:1039300002CF81E3F1CF91938150F3CF911183CFE7
:103940008ACF283008F027E03327DA01990F311D9C
:1039500087FD916000966105710539F432602E5F34
:103960003D9330E32A95E1F708959F3F30F080388A
:103970007105610509F03C5F3C5F3D93913008F0B3
:103980008068911DDF93CF931F930F93FF92EF9267
:10399000192F987F9695E92F96959695E90FFF2711
:1039A000EC5BFE4F99273327EE24FF24A701E701A4
:1039B00005900894079428F4360FE71EF81E491F57
:1039C000511D660F771F881F991F0694A1F7059058
:1039D000079428F4E70EF81E491F561FC11D770FE4
:1039E000881F991F661F0694A1F70590079428F475
:1039F000F80E491F561FC71FD11D880F991F661F3C
:103A0000771F0694A1F70590079420F4490F561FDD
:103A1000C71FD81F990F661F771F881F0694A9F725
:103A200084911095177041F0D695C7955795479595
:103A3000F794E7941A95C1F7EAEEF0E068941590D0
:103A4000159135916591959105907FE27395E118F7
:103A5000F10A430B560BC90BD009C0F7E10CF11E5C
:103A6000431F561FC91FD01D7EF4703311F48A9571
:103A7000E6CFE894015030F0080F0AF4002702174F
:103A800008F4202F2395022F7A3328F079E37D93D1
:103A90002A95E9F710C07D932A9589F606949795A3
:103AA0006795379517951794E118F10A430B560B54
:103AB000C90BD00998F023957E9173957A3308F05D
:103AC00070E37C932013B8F77E9170617D9330F0A2
:103AD000839571E37D9370E32A95E1F71124EF90CC
:103AE000FF900F911F91CF91DF91992787FD9095BE
:103AF0000895DC01FC01672F71917723E1F732977C
:103B000004C07C916D9370836291AE17BF07C8F3B8
:103B100008950E94CB1D08F481E00895E89409C03F
:103B200097FB3EF490958095709561957F4F8F4FF0
:103B30009F4F9923A9F0F92F96E9BB279395F69506
:103B4000879577956795B795F111F8CFFAF4BB0F84
:103B500011F460FF1BC06F5F7F4F8F4F9F4F16C0E8
:103B6000882311F096E911C0772321F09EE8872F72
:103B7000762F05C0662371F096E8862F70E060E02E
:103B80002AF09A95660F771F881FDAF7880F9695A7
:103B9000879597F90895990F0008550FAA0BE0E84B
:103BA000FEEF16161706E807F907C0F012161306FF
:103BB000E407F50798F0621B730B840B950B39F43F
:103BC0000A2661F0232B242B252B21F408950A26A5
:103BD00009F4A140A6958FEF811D811D08950E94D3
:103BE000021E0C94731E0E94651E38F00E946C1E0B
:103BF00020F0952311F00C945C1E0C94621E11248D
:103C00000C94A71E0E94841E70F3959FC1F3950F1C
:103C100050E0551F629FF001729FBB27F00DB11D50
:103C2000639FAA27F00DB11DAA1F649F6627B00DE0
:103C3000A11D661F829F2227B00DA11D621F739FC9
:103C4000B00DA11D621F839FA00D611D221F749FD7
:103C50003327A00D611D231F849F600D211D822F1E
:103C6000762F6A2F11249F5750409AF0F1F0882345
:103C70004AF0EE0FFF1FBB1F661F771F881F915072
:103C80005040A9F79E3F510580F00C945C1E0C94A7
:103C9000A71E5F3FE4F3983ED4F38695779567952A
:103CA000B795F795E7959F5FC1F7FE2B880F911D9C
:103CB0009695879597F9089597F99F6780E870E042
:103CC00060E008959FEF80EC089500240A94161692
:103CD000170618060906089500240A9412161306FA
:103CE000140605060895092E0394000C11F4882388
:103CF00052F0BB0F40F4BF2B11F460FF04C06F5FA4
:103D00007F4F8F4F9F4F089557FD9058440F551F79
:103D100059F05F3F71F04795880F97FB991F61F04D
:103D20009F3F79F087950895121613061406551FC4
:103D3000F2CF4695F1DF08C0161617061806991F30
:103D4000F1CF86957105610508940895E894BB2725
:103D500066277727CB0197F908950E94EF1EA59F4C
:103D6000900DB49F900DA49F800D911D1124089576
:103D70002F923F924F925F926F927F928F929F927B
:103D8000AF92BF92CF92DF92EF92FF920F931F9369
:103D9000CF93DF93CDB7DEB7CA1BDB0B0FB6F8941A
:103DA000DEBF0FBECDBF09942A88398848885F845A
:103DB0006E847D848C849B84AA84B984C884DF80CB
:103DC000EE80FD800C811B81AA81B981CE0FD11DAF
:103DD0000FB6F894DEBF0FBECDBFED010895A29FD0
:103DE000B001B39FC001A39F700D811D1124911DCF
:103DF000B29F700D811D1124911D08955058BB274D
:103E0000AA270E94161F0C94731E0E94651E38F08C
:103E10000E946C1E20F039F49F3F19F426F40C9494
:103E2000621E0EF4E095E7FB0C945C1EE92F0E94E5
:103E3000841E58F3BA17620773078407950720F0AA
:103E400079F4A6F50C94A61E0EF4E0950B2EBA2F6D
:103E5000A02D0B01B90190010C01CA01A001112490
:103E6000FF27591B99F0593F50F4503E68F11A163C
:103E7000F040A22F232F342F4427585FF3CF4695CD
:103E800037952795A795F0405395C9F77EF41F16EF
:103E9000BA0B620B730B840BBAF09150A1F0FF0FB9
:103EA000BB1F661F771F881FC2F70EC0BA0F621FA5
:103EB000731F841F48F4879577956795B795F79595
:103EC0009E3F08F0B0CF9395880F08F09927EE0F2A
:103ED0009795879508950E947F1F0C94731E0E94EA
:103EE0006C1E58F00E94651E40F029F45F3F29F0D7
:103EF0000C945C1E51110C94A71E0C94621E0E941F
:103F0000841E68F39923B1F3552391F3951B550B48
:103F1000BB27AA2762177307840738F09F5F5F4F9C
:103F2000220F331F441FAA1FA9F335D00E2E3AF0DB
:103F3000E0E832D091505040E695001CCAF72BD0F3
:103F4000FE2F29D0660F771F881FBB1F2617370744
:103F50004807AB07B0E809F0BB0B802DBF01FF2776
:103F600093585F4F3AF09E3F510578F00C945C1ED9
:103F70000C94A71E5F3FE4F3983ED4F386957795A3
:103F80006795B795F7959F5FC9F7880F911D96952F
:103F9000879597F90895E1E0660F771F881FBB1F8B
:103FA000621773078407BA0720F0621B730B840B38
:103FB000BA0BEE1F88F7E09508950E948C1E88F0DA
:103FC0009F5798F0B92F9927B751B0F0E1F0660FDD
:103FD000771F881F991F1AF0BA95C9F714C0B1301E
:103FE00091F00E94A61EB1E008950C94A61E672FC2
:103FF000782F8827B85F39F0B93FCCF3869577954D
:104000006795B395D9F73EF4909580957095619535
:104010007F4F8F4F9F4F08950E94CB1D08F48FEF65
:104020000895FA01EE0FFF1F309621053105A1F129
:104030006115710561F48038BFE39B0749F168940D
:104040009038810561F08038BFEF9B0741F09923DC
:104050004AF5FF3FE1053105210519F1E89408947F
:10406000E795D901AA2329F4AB2FBE2FF85FD0F32F
:1040700010C0FF5F70F4A695E0F7F73950F019F023
:10408000FF3A38F49F779F930DD00F9007FC90581C
:10409000089546F00C94621E60E070E080E89FE3B3
:1040A00008954FE79F775F934F933F932F930E941D
:1040B00011212F913F914F915F910E94EF1D0C9420
:1040C0006E200E94CB1D880B990B089529F416F0E1
:1040D0000C945C1E0C94A61E0C94621E0E948C1EF6
:1040E000A8F39638A0F707F80F92E8942BE33AEA82
:1040F00048EB5FE70E94051E0F920F920F924DB79B
:104100005EB70F920E945921E8E6F0E00E94A020DD
:104110004F915F91EF91FF91E595EE1FFF1F49F0E1
:10412000FE57E0684427EE0F441FFA95E1F74195EA
:10413000550B0E94D3200F9007FE0C94C7200895C2
:10414000DF93CF931F930F93FF92EF92DF927B0148
:104150008C01689406C0DA2EEF010E94021EFE0157
:10416000E894A5912591359145915591A6F3EF01DC
:104170000E94161FFE019701A801DA9469F7DF90EB
:10418000EF90FF900F911F91CF91DF9108959B01C8
:10419000AC0160E070E080E89FE30C946B1F0C942E
:1041A0005C1E0C948D210E948C1ED8F39923C9F3B8
:1041B000940F511DA3F39150504094F059F088236F
:1041C00032F0660F771F881F91505040C1F79E3F15
:1041D00051052CF7880F911D9695879597F90895AD
:1041E0005F3FACF0983E9CF0BB278695779567952E
:1041F000B79508F4B1609395C1F7BB0F58F711F468
:1042000060FFE8CF6F5F7F4F8F4F9F4FE3CF0C94DE
:10421000A71E16F00C948D210C94621E68940C94C9
:104220005C1E0E948C1EA8F39923C1F3AEF3DF93AA
:10423000CF931F930F93FF92C92FDD2788232AF076
:104240002197660F771F881FDAF720E030E040E8FB
:104250005FEB9FE3883920F0803E38F021968F771E
:104260000E94FF1EE0E9F0E004C00E94FF1EEDEB9B
:10427000F0E00E94A0208B01BE01EC01FB2E6F57E5
:1042800071097595771F880B990B0E94901D28E185
:1042900032E741E35FE30E94021EAF2D9801AE01B9
:1042A000FF900F911F91CF91DF910E94161F0C94E8
:1042B000731EFA01DC01AA0FBB1F9B01AC01BF57A3
:1042C00028F4222733274427507820C0B75190F490
:1042D000AB2F0024469537952795011CA395D2F363
:1042E000002071F0220F331F441FB395DAF30ED074
:1042F0000C94FE1E61307105A0E88A07B94630F4BF
:104300009B01AC016627772788279078309621F0AB
:10431000208331834283538308959F3F31F091502E
:1043200020F4879577956795B795880F911D969599
:10433000879597F90895DB018F939F930E94AD1E97
:10434000BF91AF91A29F800D911DA39F900DB29F31
:10435000900D11240895A1E21A2EAA1BBB1BFD018A
:104360000DC0AA1FBB1FEE1FFF1FA217B307E40754
:10437000F50720F0A21BB30BE40BF50B661F771FAC
:10438000881F991F1A9469F760957095809590958C
:104390009B01AC01BD01CF010895052E97FB1EF4D2
:1043A00000940E94E42157FD07D00E94AB2107FC36
:1043B00003D04EF40C94E42150954095309521950E
:1043C0003F4F4F4F5F4F0895909580957095619541
:1043D0007F4F8F4F9F4F0895B7FF0C94AD1E0E94E3
:1043E000AD1E821B930B0895EE0FFF1F0590F491F5
:1043F000E02D09940F931F93CF93DF9382309105A3
:1044000010F482E090E0E0913604F091370430E05F
:1044100020E0B0E0A0E0309799F42115310509F4CF
:104420004AC0281B390B24303105D8F58A819B817D
:104430006115710589F1FB0193838283FE0111C02F
:10444000408151810281138148175907E0F04817D4
:10445000590799F4109761F012960C9312971396DE
:104460001C933296CF01DF91CF911F910F91089548
:104470000093360410933704F4CF2115310551F021
:104480004217530738F0A901DB019A01BD01DF0192
:10449000F801C1CFEF01F9CF909337048093360430
:1044A000CDCFFE01E20FF31F81939193225031098A
:1044B00039832883D7CF2091340430913504232BBE
:1044C00041F4209107013091080130933504209385
:1044D000340420910501309106012115310541F484
:1044E0002DB73EB74091090150910A01241B350BAD
:1044F000E0913404F0913504E217F307A0F42E1B89
:104500003F0B2817390778F0AC014E5F5F4F241737
:10451000350748F04E0F5F1F509335044093340425
:10452000819391939FCFF0E0E0E09CCFCF93DF9316
:104530000097E9F0FC01329713821282A0913604B1
:10454000B0913704ED0130E020E01097A1F4208114
:104550003181820F931F2091340430913504281744
:10456000390709F061C0F0933504E0933404DF911A
:10457000CF910895EA01CE17DF07E8F54A815B8104
:104580009E0141155105B1F7E901FB83EA83499189
:104590005991C40FD51FEC17FD0761F480819181FB
:1045A0000296840F951FE901998388838281938104
:1045B0009B838A83F0E0E0E012968D919C911397A3
:1045C0000097B9F52D913C911197CD010296820F7C
:1045D000931F20913404309135042817390739F698
:1045E000309751F51092370410923604B093350489
:1045F000A0933404BCCFD383C28340815181840F04
:10460000951FC817D90761F44E5F5F4F8881998164
:10461000480F591F518340838A819B8193838283F2
:104620002115310509F0B0CFF0933704E09336043B
:104630009ECFFD01DC01C0CF13821282D7CFB0E044
:10464000A0E0E5E2F3E20C94BA1E8C01009751F46D
:10465000CB010E94FA218C01C801CDB7DEB7E0E1A1
:104660000C94D61EFC01E60FF71F9C012250310965
:10467000E217F30708F49DC0D901CD91DC911197A1
:10468000C617D70798F0C530D10530F3CE0104978F
:104690008617970708F3C61BD70B2297C193D193B0
:1046A0006D937C93CF010E949622D6CF5B01AC1A0A
:1046B000BD0A4C018C0E9D1EA0913604B0913704AA
:1046C000512C412CF12CE12C109731F580913404C0
:1046D000909135048815990509F05CC04616570677
:1046E00008F058C08091050190910601009741F4AF
:1046F0008DB79EB74091090150910A01841B950B1B
:10470000E817F90708F055C0F0933504E093340436
:10471000F90171836083A0CF8D919C9111971296BE
:104720006C90129713967C901397A815B90559F5BC
:104730006C0142E0C40ED11CCA14DB0420F1AC01B0
:104740004A195B09DA011296159780F0628273822A
:1047500051834083D9016D937C93E114F10471F08E
:10476000D7011396FC93EE93129776CF22968C0F77
:104770009D1FF90191838083F301EFCFF0933704FC
:10478000E093360469CF4816590608F42C017D01E0
:10479000D3019ACFCB010E94FA217C01009749F006
:1047A000AE01B8010E94DC23C8010E949622870155
:1047B00053CF10E000E050CFFB01DC0102C00190BC
:1047C0000D9241505040D8F70895FB01DC01019053
:1047D0000D920020E1F7089511E0C0E2D1E004C09D
:1047E000FE010E94F4212196C132D107C9F7F89445
:0247F000FFCFF9
:1047F2009503950301000038048000000040001476
:104802000054000000000036049603C3038304F43E
:1048120003D203E6030000000068073B07AB07BCB6
:104822000434072107120700000000BB0B9603ABFC
:1048320007A30400000000BD049603AB07BC0419E3
:10484200052F05A4046E616E00696E66006F7666C0
:10485200002C004E4E4500454E4500454553005341
:10486200534500535357005757530057574E004E66
:104872004E570054656D70657261743D002A4300A5
:1048820050726573733D00506100416C7469743DF0
:10489200006D00737065656457696E643D006B6DF1
:1048A2002F68007261696E3D006D6D2F4872006461
:1048B2006972656374696F6E3D0068756D656461E8
:1048C200643D0025000D0A0053656E642064617426
:1048D2006120746F207365727665722073756363ED
:0848E20065737366756C00003C
:00000001FF
